{
  "contractName": "BTM",
  "abi": [
    {
      "constant": false,
      "inputs": [
        {
          "name": "_fromAtm",
          "type": "address"
        },
        {
          "name": "_debitBank",
          "type": "address"
        },
        {
          "name": "_creditBank",
          "type": "address"
        },
        {
          "name": "_trxHash",
          "type": "string"
        },
        {
          "name": "_amount",
          "type": "int256"
        },
        {
          "name": "_fee",
          "type": "int256"
        },
        {
          "name": "_feeFrDebitBank",
          "type": "bool"
        },
        {
          "name": "_status",
          "type": "int256"
        }
      ],
      "name": "confirmCredit",
      "outputs": [],
      "payable": false,
      "stateMutability": "nonpayable",
      "type": "function"
    },
    {
      "constant": true,
      "inputs": [],
      "name": "getDate",
      "outputs": [
        {
          "name": "a",
          "type": "uint256"
        }
      ],
      "payable": false,
      "stateMutability": "view",
      "type": "function"
    },
    {
      "constant": false,
      "inputs": [
        {
          "name": "_bankAdd",
          "type": "address"
        },
        {
          "name": "_atmAdd",
          "type": "address[]"
        }
      ],
      "name": "setBankATM",
      "outputs": [],
      "payable": false,
      "stateMutability": "nonpayable",
      "type": "function"
    },
    {
      "constant": false,
      "inputs": [
        {
          "name": "_fromAtm",
          "type": "address"
        },
        {
          "name": "_debitBank",
          "type": "address"
        },
        {
          "name": "_creditBank",
          "type": "address"
        },
        {
          "name": "_trxHash",
          "type": "string"
        },
        {
          "name": "_amount",
          "type": "int256"
        },
        {
          "name": "_fee",
          "type": "int256"
        }
      ],
      "name": "startTrx",
      "outputs": [],
      "payable": false,
      "stateMutability": "nonpayable",
      "type": "function"
    },
    {
      "constant": true,
      "inputs": [],
      "name": "owner",
      "outputs": [
        {
          "name": "",
          "type": "address"
        }
      ],
      "payable": false,
      "stateMutability": "view",
      "type": "function"
    },
    {
      "constant": true,
      "inputs": [
        {
          "name": "_bankAdd",
          "type": "address"
        }
      ],
      "name": "getBankAtms",
      "outputs": [
        {
          "name": "s",
          "type": "address[]"
        }
      ],
      "payable": false,
      "stateMutability": "view",
      "type": "function"
    },
    {
      "constant": true,
      "inputs": [],
      "name": "myBalance",
      "outputs": [
        {
          "name": "",
          "type": "int256"
        }
      ],
      "payable": false,
      "stateMutability": "view",
      "type": "function"
    },
    {
      "constant": false,
      "inputs": [
        {
          "name": "anAccount",
          "type": "address"
        },
        {
          "name": "_amount",
          "type": "int256"
        }
      ],
      "name": "changeBalance",
      "outputs": [],
      "payable": false,
      "stateMutability": "nonpayable",
      "type": "function"
    },
    {
      "constant": false,
      "inputs": [
        {
          "name": "_fromAtm",
          "type": "address"
        },
        {
          "name": "_debitBank",
          "type": "address"
        },
        {
          "name": "_creditBank",
          "type": "address"
        },
        {
          "name": "_trxHash",
          "type": "string"
        },
        {
          "name": "_amount",
          "type": "int256"
        },
        {
          "name": "_fee",
          "type": "int256"
        },
        {
          "name": "_status",
          "type": "int256"
        }
      ],
      "name": "confirmDebit",
      "outputs": [],
      "payable": false,
      "stateMutability": "nonpayable",
      "type": "function"
    },
    {
      "constant": false,
      "inputs": [
        {
          "name": "newOwner",
          "type": "address"
        }
      ],
      "name": "transferOwnership",
      "outputs": [],
      "payable": false,
      "stateMutability": "nonpayable",
      "type": "function"
    },
    {
      "constant": true,
      "inputs": [
        {
          "name": "_add",
          "type": "address"
        }
      ],
      "name": "getBalance",
      "outputs": [
        {
          "name": "",
          "type": "int256"
        }
      ],
      "payable": false,
      "stateMutability": "view",
      "type": "function"
    },
    {
      "inputs": [],
      "payable": false,
      "stateMutability": "nonpayable",
      "type": "constructor"
    },
    {
      "anonymous": false,
      "inputs": [
        {
          "indexed": false,
          "name": "_issueBank",
          "type": "string"
        },
        {
          "indexed": false,
          "name": "_account",
          "type": "string"
        },
        {
          "indexed": false,
          "name": "_pwd",
          "type": "string"
        },
        {
          "indexed": false,
          "name": "_amount",
          "type": "int256"
        }
      ],
      "name": "Withdrawal",
      "type": "event"
    },
    {
      "anonymous": false,
      "inputs": [
        {
          "indexed": false,
          "name": "_fromAtm",
          "type": "address"
        },
        {
          "indexed": false,
          "name": "_debitBankAtm",
          "type": "address"
        },
        {
          "indexed": false,
          "name": "_debitBank",
          "type": "address"
        },
        {
          "indexed": false,
          "name": "_creditBank",
          "type": "address"
        },
        {
          "indexed": false,
          "name": "_trxHash",
          "type": "string"
        },
        {
          "indexed": false,
          "name": "_amount",
          "type": "int256"
        },
        {
          "indexed": false,
          "name": "_fee",
          "type": "int256"
        }
      ],
      "name": "CheckDebit",
      "type": "event"
    },
    {
      "anonymous": false,
      "inputs": [
        {
          "indexed": false,
          "name": "_fromAtm",
          "type": "address"
        },
        {
          "indexed": false,
          "name": "_debitBank",
          "type": "address"
        },
        {
          "indexed": false,
          "name": "_creditBankAtm",
          "type": "address"
        },
        {
          "indexed": false,
          "name": "_creditBank",
          "type": "address"
        },
        {
          "indexed": false,
          "name": "_trxHash",
          "type": "string"
        },
        {
          "indexed": false,
          "name": "_amount",
          "type": "int256"
        },
        {
          "indexed": false,
          "name": "_fee",
          "type": "int256"
        }
      ],
      "name": "CheckCredit",
      "type": "event"
    },
    {
      "anonymous": false,
      "inputs": [
        {
          "indexed": false,
          "name": "_fromAtm",
          "type": "address"
        },
        {
          "indexed": false,
          "name": "_debitBank",
          "type": "address"
        },
        {
          "indexed": false,
          "name": "_creditBank",
          "type": "address"
        },
        {
          "indexed": false,
          "name": "_trxHash",
          "type": "string"
        },
        {
          "indexed": false,
          "name": "_amount",
          "type": "int256"
        },
        {
          "indexed": false,
          "name": "_fee",
          "type": "int256"
        },
        {
          "indexed": false,
          "name": "_status",
          "type": "int256"
        }
      ],
      "name": "Commit",
      "type": "event"
    }
  ],
  "bytecode": "0x6060604052341561000f57600080fd5b336000806101000a81548173ffffffffffffffffffffffffffffffffffffffff021916908373ffffffffffffffffffffffffffffffffffffffff1602179055506112028061005e6000396000f3006060604052600436106100af576000357c0100000000000000000000000000000000000000000000000000000000900463ffffffff1680630ab3ae64146100b4578063430fe9c11461019457806344d4db8b146101bd5780638723a1811461020a5780638da5cb5b146102a7578063c5ca75b7146102fc578063c9116b691461038a578063da75bb94146103b3578063ecdfce9e146103f5578063f2fde38b1461049b578063f8b2cb4f146104d4575b600080fd5b34156100bf57600080fd5b610192600480803573ffffffffffffffffffffffffffffffffffffffff1690602001909190803573ffffffffffffffffffffffffffffffffffffffff1690602001909190803573ffffffffffffffffffffffffffffffffffffffff1690602001909190803590602001908201803590602001908080601f016020809104026020016040519081016040528093929190818152602001838380828437820191505050505050919080359060200190919080359060200190919080351515906020019091908035906020019091905050610521565b005b341561019f57600080fd5b6101a7610813565b6040518082815260200191505060405180910390f35b34156101c857600080fd5b610208600480803573ffffffffffffffffffffffffffffffffffffffff16906020019091908035906020019082018035906020019190919290505061081b565b005b341561021557600080fd5b6102a5600480803573ffffffffffffffffffffffffffffffffffffffff1690602001909190803573ffffffffffffffffffffffffffffffffffffffff1690602001909190803573ffffffffffffffffffffffffffffffffffffffff1690602001909190803590602001908201803590602001919091929080359060200190919080359060200190919050506108ca565b005b34156102b257600080fd5b6102ba610a12565b604051808273ffffffffffffffffffffffffffffffffffffffff1673ffffffffffffffffffffffffffffffffffffffff16815260200191505060405180910390f35b341561030757600080fd5b610333600480803573ffffffffffffffffffffffffffffffffffffffff16906020019091905050610a37565b6040518080602001828103825283818151815260200191508051906020019060200280838360005b8381101561037657808201518184015260208101905061035b565b505050509050019250505060405180910390f35b341561039557600080fd5b61039d610b65565b6040518082815260200191505060405180910390f35b34156103be57600080fd5b6103f3600480803573ffffffffffffffffffffffffffffffffffffffff16906020019091908035906020019091905050610bac565b005b341561040057600080fd5b610499600480803573ffffffffffffffffffffffffffffffffffffffff1690602001909190803573ffffffffffffffffffffffffffffffffffffffff1690602001909190803573ffffffffffffffffffffffffffffffffffffffff169060200190919080359060200190820180359060200191909192908035906020019091908035906020019091908035906020019091905050610cc6565b005b34156104a657600080fd5b6104d2600480803573ffffffffffffffffffffffffffffffffffffffff16906020019091905050610eca565b005b34156104df57600080fd5b61050b600480803573ffffffffffffffffffffffffffffffffffffffff16906020019091905050610f68565b6040518082815260200191505060405180910390f35b6103e88114156106b95783600160008973ffffffffffffffffffffffffffffffffffffffff1673ffffffffffffffffffffffffffffffffffffffff1681526020019081526020016000206000828254039250508190555083600160008873ffffffffffffffffffffffffffffffffffffffff1673ffffffffffffffffffffffffffffffffffffffff16815260200190815260200160002060008282540192505081905550811561061d5782600160008973ffffffffffffffffffffffffffffffffffffffff1673ffffffffffffffffffffffffffffffffffffffff1681526020019081526020016000206000828254039250508190555061066b565b82600160008873ffffffffffffffffffffffffffffffffffffffff1673ffffffffffffffffffffffffffffffffffffffff168152602001908152602001600020600082825403925050819055505b82600160008a73ffffffffffffffffffffffffffffffffffffffff1673ffffffffffffffffffffffffffffffffffffffff168152602001908152602001600020600082825401925050819055505b7fca2a3cb5c30d06f2e2e1a3670f9f5612ed124bf7cf7806b91f6c14f6d615188c88888888888887604051808873ffffffffffffffffffffffffffffffffffffffff1673ffffffffffffffffffffffffffffffffffffffff1681526020018773ffffffffffffffffffffffffffffffffffffffff1673ffffffffffffffffffffffffffffffffffffffff1681526020018673ffffffffffffffffffffffffffffffffffffffff1673ffffffffffffffffffffffffffffffffffffffff16815260200180602001858152602001848152602001838152602001828103825286818151815260200191508051906020019080838360005b838110156107c95780820151818401526020810190506107ae565b50505050905090810190601f1680156107f65780820380516001836020036101000a031916815260200191505b509850505050505050505060405180910390a15050505050505050565b600042905090565b6000809054906101000a900473ffffffffffffffffffffffffffffffffffffffff1673ffffffffffffffffffffffffffffffffffffffff163373ffffffffffffffffffffffffffffffffffffffff1614151561087657600080fd5b8181600260008673ffffffffffffffffffffffffffffffffffffffff1673ffffffffffffffffffffffffffffffffffffffff16815260200190815260200160002091906108c49291906110df565b50505050565b60006108d58761100c565b90507fe478cad886b9bbd175f972f26edbd2205ec3e1ddfdd6f13519c38cc9ab7795d98882898989898989604051808973ffffffffffffffffffffffffffffffffffffffff1673ffffffffffffffffffffffffffffffffffffffff1681526020018873ffffffffffffffffffffffffffffffffffffffff1673ffffffffffffffffffffffffffffffffffffffff1681526020018773ffffffffffffffffffffffffffffffffffffffff1673ffffffffffffffffffffffffffffffffffffffff1681526020018673ffffffffffffffffffffffffffffffffffffffff1673ffffffffffffffffffffffffffffffffffffffff1681526020018060200184815260200183815260200182810382528686828181526020019250808284378201915050995050505050505050505060405180910390a15050505050505050565b6000809054906101000a900473ffffffffffffffffffffffffffffffffffffffff1681565b610a3f61117f565b6000809054906101000a900473ffffffffffffffffffffffffffffffffffffffff1673ffffffffffffffffffffffffffffffffffffffff163373ffffffffffffffffffffffffffffffffffffffff16141515610a9a57600080fd5b600260008373ffffffffffffffffffffffffffffffffffffffff1673ffffffffffffffffffffffffffffffffffffffff168152602001908152602001600020805480602002602001604051908101604052809291908181526020018280548015610b5957602002820191906000526020600020905b8160009054906101000a900473ffffffffffffffffffffffffffffffffffffffff1673ffffffffffffffffffffffffffffffffffffffff1681526020019060010190808311610b0f575b50505050509050919050565b6000600160003373ffffffffffffffffffffffffffffffffffffffff1673ffffffffffffffffffffffffffffffffffffffff16815260200190815260200160002054905090565b6000809054906101000a900473ffffffffffffffffffffffffffffffffffffffff1673ffffffffffffffffffffffffffffffffffffffff163373ffffffffffffffffffffffffffffffffffffffff16141515610c0757600080fd5b80600160008473ffffffffffffffffffffffffffffffffffffffff1673ffffffffffffffffffffffffffffffffffffffff1681526020019081526020016000206000828254019250508190555080600160008060009054906101000a900473ffffffffffffffffffffffffffffffffffffffff1673ffffffffffffffffffffffffffffffffffffffff1673ffffffffffffffffffffffffffffffffffffffff168152602001908152602001600020600082825403925050819055505050565b60006103e8821415610cd757610d1b565b610d1a89898989898080601f0160208091040260200160405190810160405280939291908181526020018383808284378201915050505050508888600089610521565b5b60008773ffffffffffffffffffffffffffffffffffffffff161415610d8257610d7d89898989898080601f0160208091040260200160405190810160405280939291908181526020018383808284378201915050505050508888600189610521565b610ebf565b610d8b8761100c565b90507f6acf0891607a32827620eab5a44f186365a6e45c1298a0970a0ff481dbaf68b28989838a8a8a8a8a604051808973ffffffffffffffffffffffffffffffffffffffff1673ffffffffffffffffffffffffffffffffffffffff1681526020018873ffffffffffffffffffffffffffffffffffffffff1673ffffffffffffffffffffffffffffffffffffffff1681526020018773ffffffffffffffffffffffffffffffffffffffff1673ffffffffffffffffffffffffffffffffffffffff1681526020018673ffffffffffffffffffffffffffffffffffffffff1673ffffffffffffffffffffffffffffffffffffffff1681526020018060200184815260200183815260200182810382528686828181526020019250808284378201915050995050505050505050505060405180910390a15b505050505050505050565b6000809054906101000a900473ffffffffffffffffffffffffffffffffffffffff1673ffffffffffffffffffffffffffffffffffffffff163373ffffffffffffffffffffffffffffffffffffffff16141515610f2557600080fd5b806000806101000a81548173ffffffffffffffffffffffffffffffffffffffff021916908373ffffffffffffffffffffffffffffffffffffffff16021790555050565b60008060009054906101000a900473ffffffffffffffffffffffffffffffffffffffff1673ffffffffffffffffffffffffffffffffffffffff163373ffffffffffffffffffffffffffffffffffffffff16141515610fc557600080fd5b600160008373ffffffffffffffffffffffffffffffffffffffff1673ffffffffffffffffffffffffffffffffffffffff168152602001908152602001600020549050919050565b600080600260008473ffffffffffffffffffffffffffffffffffffffff1673ffffffffffffffffffffffffffffffffffffffff168152602001908152602001600020805490504381151561105c57fe5b069050600260008473ffffffffffffffffffffffffffffffffffffffff1673ffffffffffffffffffffffffffffffffffffffff168152602001908152602001600020818154811015156110ab57fe5b906000526020600020900160009054906101000a900473ffffffffffffffffffffffffffffffffffffffff16915050919050565b82805482825590600052602060002090810192821561116e579160200282015b8281111561116d57823573ffffffffffffffffffffffffffffffffffffffff168260006101000a81548173ffffffffffffffffffffffffffffffffffffffff021916908373ffffffffffffffffffffffffffffffffffffffff160217905550916020019190600101906110ff565b5b50905061117b9190611193565b5090565b602060405190810160405280600081525090565b6111d391905b808211156111cf57600081816101000a81549073ffffffffffffffffffffffffffffffffffffffff021916905550600101611199565b5090565b905600a165627a7a723058205bf80717acf0be3d7eb9c2df9350f5ea77aa087a4665a07b16f23591a434178b0029",
  "source": "pragma solidity ^0.4.0;\r\n\r\ncontract owned {\r\n    address public owner;\r\n\r\n    function owned() public {\r\n        owner = msg.sender;\r\n    }\r\n\r\n    modifier onlyOwner {\r\n        require(msg.sender == owner);\r\n        _;\r\n    }\r\n\r\n    function transferOwnership(address newOwner) onlyOwner public {\r\n        owner = newOwner;\r\n    }\r\n}\r\n\r\n\r\n\r\ncontract BTM is owned{\r\n    mapping (address => int256) private balanceOf;//cg: represent balance of each account\r\n   // mapping (address => string) public nameOf;//bank address - bank name\r\n    mapping (address => address[]) atmsOf;//bank address - the atms[] of the bank\r\n    event Withdrawal(string _issueBank, string _account, string _pwd, int _amount);\r\n    int constant STATUS_OK = 1000;\r\n    //event to notify the specific debit bank ATM node to check whether the transaction can be debitted from the debit bank account.\r\n    //the debit bank has the right to know all transaction information\r\n    //pls note that this event reuqire _debitBankAtm address\r\n    event CheckDebit(address _fromAtm, address _debitBankAtm, address _debitBank, address _creditBank,  string _trxHash, int256 _amount, int256 _fee);\r\n    \r\n    //event to notify the specific credit bank ATM node to check whether the transaction can be creditted to the credit bank account.\r\n    //the credit bank has the right to know all transaction information\r\n    //pls note that this event reuqire _creditBankAtm address\r\n    event CheckCredit(address _fromAtm, address _debitBank, address _creditBankAtm,address _creditBank,  string _trxHash, int256 _amount, int256 _fee);//the debit bank has the right to know all transaction information\r\n    //event to notify the _fromAtm node to commit the transaction\r\n    event Commit(address _fromAtm, address _debitBank, address _creditBank,  string _trxHash, int256 _amount, int256 _fee, int _status);\r\n    function BTM(){       \r\n        \r\n    }\r\n    //the function to be called by an ATM node to start the transaction\r\n    //_debitBank and _debitAccount must be valid, otherwise it has no point for transaction come to blockchain\r\n    // the fee is defined by the _fromAtm because it's the _fromAtm to receive the fee\r\n    //_trxHash include like fromAccout / to account / pwd , such as {from：＂１２３“， to: \"456\", pwd: \"12345\"}\r\n    function startTrx(address _fromAtm, address _debitBank, address _creditBank,string _trxHash, int256 _amount, int256 _fee) external{\r\n        var _debitBankAtm = getDestNode(_debitBank);//find an ATM node from the _debitBank\r\n        CheckDebit( _fromAtm,  _debitBankAtm,  _debitBank, _creditBank,  _trxHash,   _amount,  _fee);\r\n    }\r\n    //to be called by the credit bank ATM node to confirm that it's ok to be creditted for the transaction\r\n    //pls note that this function require _debitBank address, but not _debitBankAtm\r\n    function confirmDebit(address _fromAtm, address _debitBank, address _creditBank, string _trxHash, int256 _amount, int256 _fee, int _status) external{\r\n\r\n        if(_status == STATUS_OK){\r\n            //do nth but wait to check credit information\r\n        }else{//no need to check credit, can commit transaction now (rejection)\r\n            confirmCredit( _fromAtm,  _debitBank,  _creditBank,  _trxHash,   _amount,  _fee, false, _status);\r\n        }\r\n\r\n        if(_creditBank == 0x0){//no credit bank - like CWD, just to start confirmCredit\r\n            confirmCredit( _fromAtm,  _debitBank,  _creditBank,  _trxHash,   _amount,  _fee, true, _status);\r\n        }else{\r\n            var _creditBankAtm = getDestNode(_creditBank);//find an ATM node from the _creditBank\r\n            CheckCredit( _fromAtm,  _debitBank,  _creditBankAtm, _creditBank, _trxHash,   _amount,  _fee);\r\n        }\r\n        \r\n\r\n    }\r\n    //pls note that this function require _creditBank address, but not _creditBankAtm\r\n    function confirmCredit(address _fromAtm, address _debitBank, address _creditBank,  string _trxHash, int256 _amount, int256 _fee, bool _feeFrDebitBank, int _status) public{\r\n        if(_status == STATUS_OK){\r\n            \r\n            balanceOf[_debitBank] -= _amount;\r\n            balanceOf[_creditBank] += _amount;\r\n            if(_feeFrDebitBank){\r\n                balanceOf[_debitBank] -= _fee;\r\n            }else{\r\n                balanceOf[_creditBank] -= _fee;\r\n                \r\n            }\r\n            balanceOf[_fromAtm] += _fee;\r\n        }        \r\n        Commit( _fromAtm,  _debitBank,  _creditBank,  _trxHash,   _amount,  _fee, _status);\r\n\r\n    }\r\n    //struct BankAtms{\r\n    //   mapping (address =>int256) balanceOf;\r\n    //}\r\n    //mapping (address=>BankAtms) bankAtmList;//mapping of bankName - ATMList\r\n    //function addBank(address _bankAdd, string _bankName) external onlyOwner{\r\n    //    balanceOf[_bankAdd] = 0;\r\n    //    nameOf[_bankAdd] = _bankName;\r\n    //}\r\n    function setBankATM(address _bankAdd, address[] _atmAdd) external onlyOwner{\r\n        atmsOf[_bankAdd] = _atmAdd;\r\n    }\r\n    \r\n\r\n    function getBankAtms(address _bankAdd) external onlyOwner view returns(address[] s){\r\n        return atmsOf[_bankAdd];\r\n    }\r\n    \r\n\r\n    //return an ATM node of the selected bank, randomly or load-balanced\r\n    function getDestNode(address _issueBank) internal returns (address dest){\r\n        var index = block.number % atmsOf[_issueBank].length;\r\n        return atmsOf[_issueBank][index];//TODO - need to randomly return a node\r\n    }   \r\n    \r\n    //get balance of any account - can only be called by owner\r\n    function getBalance(address _add) external view onlyOwner returns (int256) {\r\n        return balanceOf[_add];\r\n    }\r\n    \r\n    //return the msg.sender's balance\r\n    function myBalance() external view returns (int256){\r\n        return balanceOf[msg.sender];\r\n    }\r\n    \r\n    //move balance between the 'anAccount' and owner account\r\n    function changeBalance(address anAccount, int256 _amount) external onlyOwner{\r\n        balanceOf[anAccount] += _amount;\r\n        balanceOf[owner] -= _amount;\r\n    }\r\n   \r\n    //testing thing\r\n    function getDate() view returns (uint256 a){\r\n        return now;\r\n    }\r\n    \r\n    \r\n}\r\n",
  "sourcePath": "/home/charles/ttt2/contracts/BTM.sol",
  "compiler": {
    "name": "solc",
    "version": "0.4.18+commit.9cf6e910.Emscripten.clang"
  },
  "schemaVersion": "1.0.1",
  "updatedAt": "2017-12-08T08:20:51.351Z"
}