{
  "contractName": "ATMNode",
  "abi": [
    {
      "constant": false,
      "inputs": [
        {
          "name": "_fromAtm",
          "type": "address"
        },
        {
          "name": "_issueBank",
          "type": "address"
        },
        {
          "name": "trxHash",
          "type": "string"
        },
        {
          "name": "status",
          "type": "int256"
        },
        {
          "name": "_amount",
          "type": "int256"
        },
        {
          "name": "fee",
          "type": "int256"
        }
      ],
      "name": "startAuthorise",
      "outputs": [],
      "payable": false,
      "stateMutability": "nonpayable",
      "type": "function"
    },
    {
      "constant": false,
      "inputs": [
        {
          "name": "trxHash",
          "type": "string"
        },
        {
          "name": "status",
          "type": "int256"
        },
        {
          "name": "fee",
          "type": "int256"
        }
      ],
      "name": "postAuthorise",
      "outputs": [],
      "payable": false,
      "stateMutability": "nonpayable",
      "type": "function"
    },
    {
      "constant": true,
      "inputs": [],
      "name": "owner",
      "outputs": [
        {
          "name": "",
          "type": "address"
        }
      ],
      "payable": false,
      "stateMutability": "view",
      "type": "function"
    },
    {
      "constant": false,
      "inputs": [
        {
          "name": "_fromAtm",
          "type": "address"
        },
        {
          "name": "trxHash",
          "type": "string"
        },
        {
          "name": "_account",
          "type": "string"
        },
        {
          "name": "_pwd",
          "type": "string"
        },
        {
          "name": "_amount",
          "type": "int256"
        }
      ],
      "name": "receiveWithdrawal",
      "outputs": [],
      "payable": false,
      "stateMutability": "nonpayable",
      "type": "function"
    },
    {
      "constant": false,
      "inputs": [
        {
          "name": "newOwner",
          "type": "address"
        }
      ],
      "name": "transferOwnership",
      "outputs": [],
      "payable": false,
      "stateMutability": "nonpayable",
      "type": "function"
    },
    {
      "constant": false,
      "inputs": [
        {
          "name": "trxHash",
          "type": "string"
        },
        {
          "name": "_issueBank",
          "type": "address"
        },
        {
          "name": "_account",
          "type": "string"
        },
        {
          "name": "_pwd",
          "type": "string"
        },
        {
          "name": "_amount",
          "type": "int256"
        }
      ],
      "name": "startWithdraw",
      "outputs": [],
      "payable": false,
      "stateMutability": "nonpayable",
      "type": "function"
    },
    {
      "inputs": [
        {
          "name": "_btm",
          "type": "address"
        }
      ],
      "payable": false,
      "stateMutability": "nonpayable",
      "type": "constructor"
    },
    {
      "anonymous": false,
      "inputs": [
        {
          "indexed": false,
          "name": "trxHash",
          "type": "string"
        },
        {
          "indexed": false,
          "name": "status",
          "type": "int256"
        },
        {
          "indexed": false,
          "name": "fee",
          "type": "int256"
        }
      ],
      "name": "WithdrawalAuthorisation",
      "type": "event"
    },
    {
      "anonymous": false,
      "inputs": [
        {
          "indexed": false,
          "name": "_fromAtm",
          "type": "address"
        },
        {
          "indexed": false,
          "name": "trxHash",
          "type": "string"
        },
        {
          "indexed": false,
          "name": "_account",
          "type": "string"
        },
        {
          "indexed": false,
          "name": "_pwd",
          "type": "string"
        },
        {
          "indexed": false,
          "name": "_amount",
          "type": "int256"
        }
      ],
      "name": "WithdrawalRequest",
      "type": "event"
    }
  ],
  "bytecode": "0x6060604052341561000f57600080fd5b60405160208061093483398101604052808051906020019091905050336000806101000a81548173ffffffffffffffffffffffffffffffffffffffff021916908373ffffffffffffffffffffffffffffffffffffffff16021790555080600160006101000a81548173ffffffffffffffffffffffffffffffffffffffff021916908373ffffffffffffffffffffffffffffffffffffffff16021790555050610878806100bc6000396000f300606060405260043610610078576000357c0100000000000000000000000000000000000000000000000000000000900463ffffffff16806315936b011461007d5780634a87b8c8146101045780638da5cb5b14610144578063f004e5db14610199578063f2fde38b14610217578063f7775db514610250575b600080fd5b341561008857600080fd5b610102600480803573ffffffffffffffffffffffffffffffffffffffff1690602001909190803573ffffffffffffffffffffffffffffffffffffffff1690602001909190803590602001908201803590602001919091929080359060200190919080359060200190919080359060200190919050506102ce565b005b341561010f57600080fd5b61014260048080359060200190820180359060200191909192908035906020019091908035906020019091905050610470565b005b341561014f57600080fd5b6101576104d7565b604051808273ffffffffffffffffffffffffffffffffffffffff1673ffffffffffffffffffffffffffffffffffffffff16815260200191505060405180910390f35b34156101a457600080fd5b610215600480803573ffffffffffffffffffffffffffffffffffffffff169060200190919080359060200190820180359060200191909192908035906020019082018035906020019190919290803590602001908201803590602001919091929080359060200190919050506104fc565b005b341561022257600080fd5b61024e600480803573ffffffffffffffffffffffffffffffffffffffff169060200190919050506105d7565b005b341561025b57600080fd5b6102cc6004808035906020019082018035906020019190919290803573ffffffffffffffffffffffffffffffffffffffff1690602001909190803590602001908201803590602001919091929080359060200190820180359060200191909192908035906020019091905050610675565b005b6000809054906101000a900473ffffffffffffffffffffffffffffffffffffffff1673ffffffffffffffffffffffffffffffffffffffff163373ffffffffffffffffffffffffffffffffffffffff1614151561032957600080fd5b600160009054906101000a900473ffffffffffffffffffffffffffffffffffffffff1673ffffffffffffffffffffffffffffffffffffffff166315936b01888888888888886040518863ffffffff167c0100000000000000000000000000000000000000000000000000000000028152600401808873ffffffffffffffffffffffffffffffffffffffff1673ffffffffffffffffffffffffffffffffffffffff1681526020018773ffffffffffffffffffffffffffffffffffffffff1673ffffffffffffffffffffffffffffffffffffffff168152602001806020018581526020018481526020018381526020018281038252878782818152602001925080828437820191505098505050505050505050600060405180830381600087803b151561045357600080fd5b6102c65a03f1151561046457600080fd5b50505050505050505050565b7fadd2484b77cb27d6eaac8fedea41d80c591db14203079aec2e6c7916c0ad442e848484846040518080602001848152602001838152602001828103825286868281815260200192508082843782019150509550505050505060405180910390a150505050565b6000809054906101000a900473ffffffffffffffffffffffffffffffffffffffff1681565b7f0b880c609bb9c1c86c3a764171032082b5452bcc7838c30a65b09f2478ceb0da8888888888888888604051808973ffffffffffffffffffffffffffffffffffffffff1673ffffffffffffffffffffffffffffffffffffffff16815260200180602001806020018060200185815260200184810384528b8b82818152602001925080828437820191505084810383528989828181526020019250808284378201915050848103825287878281815260200192508082843782019150509b50505050505050505050505060405180910390a15050505050505050565b6000809054906101000a900473ffffffffffffffffffffffffffffffffffffffff1673ffffffffffffffffffffffffffffffffffffffff163373ffffffffffffffffffffffffffffffffffffffff1614151561063257600080fd5b806000806101000a81548173ffffffffffffffffffffffffffffffffffffffff021916908373ffffffffffffffffffffffffffffffffffffffff16021790555050565b6000809054906101000a900473ffffffffffffffffffffffffffffffffffffffff1673ffffffffffffffffffffffffffffffffffffffff163373ffffffffffffffffffffffffffffffffffffffff161415156106d057600080fd5b600160009054906101000a900473ffffffffffffffffffffffffffffffffffffffff1673ffffffffffffffffffffffffffffffffffffffff1663803921ed338a8a8a8a8a8a8a8a6040518a63ffffffff167c0100000000000000000000000000000000000000000000000000000000028152600401808a73ffffffffffffffffffffffffffffffffffffffff1673ffffffffffffffffffffffffffffffffffffffff168152602001806020018873ffffffffffffffffffffffffffffffffffffffff1673ffffffffffffffffffffffffffffffffffffffff168152602001806020018060200185815260200184810384528c8c82818152602001925080828437820191505084810383528989828181526020019250808284378201915050848103825287878281815260200192508082843782019150509c50505050505050505050505050600060405180830381600087803b151561082e57600080fd5b6102c65a03f1151561083f57600080fd5b50505050505050505050505600a165627a7a723058204fc0ff84761d243c6b2b5d2ff5674b57f49363cd24a6f5f1adb0f46e827231910029",
  "source": "pragma solidity ^0.4.0;\r\n\r\ncontract owned {\r\n    address public owner;\r\n\r\n    function owned() public {\r\n        owner = msg.sender;\r\n    }\r\n\r\n    modifier onlyOwner {\r\n        require(msg.sender == owner);\r\n        _;\r\n    }\r\n\r\n    function transferOwnership(address newOwner) onlyOwner public {\r\n        owner = newOwner;\r\n    }\r\n}\r\n\r\ncontract ATMNode is owned{\r\n\r\n    BTM btm;\r\n    // the event to tell Node of the transaction authorisation result\r\n    //trxHash - the unique trx id\r\n    //status - the response status\r\n    event WithdrawalAuthorisation(string trxHash, int status, int fee);\r\n    //the event to tell node to start a CWD authorisation with ATMP\r\n    event WithdrawalRequest(address _fromAtm, string trxHash, string _account, string _pwd, int _amount);\r\n  \r\n\r\n    //the constrcutor with a BTM contract address\r\n    function ATMNode(address _btm) {\r\n        btm = BTM(_btm);\r\n    }\r\n\r\n    //the start point of a CWD, just call BTM contract to start\r\n    function startWithdraw(string trxHash, address _issueBank, string _account, string _pwd, int _amount) external  onlyOwner{\r\n        btm.withdraw(msg.sender, trxHash, _issueBank,_account, _pwd, _amount);//also carry the fromATM information\r\n    }\r\n\r\n    //to be called by the BTM, to notify the node to start authorisation with ATMP\r\n    function receiveWithdrawal(address _fromAtm, string trxHash, string _account, string _pwd, int _amount) external{\r\n       // require(msg.sender == btm.address);\r\n        \r\n        WithdrawalRequest(_fromAtm, trxHash, _account,_pwd,_amount);\r\n    }\r\n\r\n    //called by the owner node after atmp authorisation. just call BTM contract to startAuthorise\r\n    function startAuthorise(address _fromAtm, address _issueBank, string trxHash, int status, int _amount,int fee) external onlyOwner{\r\n        btm.startAuthorise(_fromAtm, _issueBank, trxHash,status,_amount, fee); \r\n    }\r\n\r\n    //called by the BTM, to notify the fromATM node of the authorisation result\r\n    function postAuthorise(string trxHash, int status, int fee)external{\r\n       // require(msg.sender == btm.address);\r\n        WithdrawalAuthorisation(trxHash, status, fee);\r\n    }\r\n    \r\n}\r\n\r\ncontract BTM is owned{\r\n    mapping (address => int256) private balanceOf;//cg: represent balance of each account\r\n    mapping (address => string) public nameOf;//bank address - bank name\r\n    mapping (address => address[]) atmsOf;//bank address - the atms[] of the bank\r\n    event Withdrawal(string _issueBank, string _account, string _pwd, int _amount);\r\n    int constant STATUS_OK = 1000;\r\n    function BTM(){       \r\n        \r\n    }\r\n    //struct BankAtms{\r\n    //   mapping (address =>int256) balanceOf;\r\n    //}\r\n    //mapping (address=>BankAtms) bankAtmList;//mapping of bankName - ATMList\r\n    function addBank(address _bankAdd, string _bankName) external onlyOwner{\r\n        balanceOf[_bankAdd] = 0;\r\n        nameOf[_bankAdd] = _bankName;\r\n    }\r\n    function addATM(address _bankAdd, address _atmAdd) external onlyOwner{\r\n        //if(bankAtmList[_bankAdd] == 0){\r\n        //    bankAtmList[_bankAdd] = BankAtms();//assign a new BankAtms \r\n        //}else{\r\n        // //do nth   \r\n        //}\r\n        //atmsOf[_bankName];\r\n        balanceOf[_atmAdd] = 0;\r\n        uint oldLength = atmsOf[_bankAdd].length;\r\n        address[] memory newAdds = new address[](oldLength+1);\r\n        for(uint i = 0; i < oldLength; i ++){\r\n            newAdds[i] = atmsOf[_bankAdd][i];\r\n        }\r\n        newAdds[oldLength] = _atmAdd;\r\n        atmsOf[_bankAdd] = newAdds;\r\n    }\r\n    function getBankAtms(address _bankAdd) external view returns(address[] s){\r\n        return atmsOf[_bankAdd];\r\n    }\r\n    \r\n    //this function must be only called by the aquiring ATM\r\n    //it will find an dest ATM for authorisation\r\n    function withdraw(address _fromAtm, string trxHash, address _issueBank, string _account, string _pwd, int _amount) external {\r\n        var destAtm = getDestNode(_issueBank);\r\n        var destAtmNode = ATMNode(destAtm);\r\n        destAtmNode.receiveWithdrawal(_fromAtm,trxHash,_account,_pwd,_amount);\r\n    }\r\n    //return an ATM node of the selected bank, randomly or load-balanced\r\n    function getDestNode(address _issueBank) internal returns (address dest){\r\n        return atmsOf[_issueBank][0];//TODO - need to randomly return a node\r\n    }\r\n\r\n    \r\n    // this function can only be called by the destAtmNode\r\n    // it will debit/credit, and then ask the fromATMNode to complete the trx\r\n    function startAuthorise(address _fromAtm, address _issueBank, string trxHash, int status, int _amount, int fee) external{\r\n        if(status == STATUS_OK){\r\n            balanceOf[_issueBank]-= (_amount + fee);//note!!!! debit must be done before credit\r\n            balanceOf[_fromAtm] += (_amount + fee);\r\n        }\r\n        var fromATMNode = ATMNode(_fromAtm);\r\n        fromATMNode.postAuthorise(trxHash, status, fee);\r\n    }\r\n\r\n\r\n\r\n    \r\n    \r\n    //get balance of any account - can only be called by owner\r\n    function getBalance(address _add) external view onlyOwner returns (int256) {\r\n        return balanceOf[_add];\r\n    }\r\n    \r\n    //return myself's balance who call's this\r\n    function myBalance() external view returns (int256){\r\n        return balanceOf[msg.sender];\r\n    }\r\n    \r\n}\r\n",
  "sourcePath": "/home/charles/newc/contracts/BTM.sol",
  "compiler": {
    "name": "solc",
    "version": "0.4.18+commit.9cf6e910.Emscripten.clang"
  },
  "schemaVersion": "1.0.1",
  "updatedAt": "2017-12-01T15:53:51.478Z"
}