{
  "contractName": "BTM",
  "abi": [
    {
      "constant": false,
      "inputs": [
        {
          "name": "_bankAdd",
          "type": "address"
        },
        {
          "name": "_atmAdd",
          "type": "address"
        }
      ],
      "name": "addATM",
      "outputs": [],
      "payable": false,
      "stateMutability": "nonpayable",
      "type": "function"
    },
    {
      "constant": false,
      "inputs": [
        {
          "name": "_fromAtm",
          "type": "address"
        },
        {
          "name": "_issueBank",
          "type": "address"
        },
        {
          "name": "trxHash",
          "type": "string"
        },
        {
          "name": "status",
          "type": "int256"
        },
        {
          "name": "_amount",
          "type": "int256"
        },
        {
          "name": "fee",
          "type": "int256"
        }
      ],
      "name": "startAuthorise",
      "outputs": [],
      "payable": false,
      "stateMutability": "nonpayable",
      "type": "function"
    },
    {
      "constant": false,
      "inputs": [
        {
          "name": "_fromAtm",
          "type": "address"
        },
        {
          "name": "_debitBank",
          "type": "address"
        },
        {
          "name": "_creditBank",
          "type": "address"
        },
        {
          "name": "_trxHash",
          "type": "string"
        },
        {
          "name": "_amount",
          "type": "int256"
        },
        {
          "name": "_fee",
          "type": "int256"
        },
        {
          "name": "_status",
          "type": "int256"
        }
      ],
      "name": "confirmCredit",
      "outputs": [],
      "payable": false,
      "stateMutability": "nonpayable",
      "type": "function"
    },
    {
      "constant": true,
      "inputs": [],
      "name": "get",
      "outputs": [
        {
          "name": "a",
          "type": "int256"
        }
      ],
      "payable": false,
      "stateMutability": "pure",
      "type": "function"
    },
    {
      "constant": false,
      "inputs": [
        {
          "name": "_fromAtm",
          "type": "address"
        },
        {
          "name": "trxHash",
          "type": "string"
        },
        {
          "name": "_issueBank",
          "type": "address"
        },
        {
          "name": "_account",
          "type": "string"
        },
        {
          "name": "_pwd",
          "type": "string"
        },
        {
          "name": "_amount",
          "type": "int256"
        }
      ],
      "name": "withdraw",
      "outputs": [],
      "payable": false,
      "stateMutability": "nonpayable",
      "type": "function"
    },
    {
      "constant": false,
      "inputs": [
        {
          "name": "_fromAtm",
          "type": "address"
        },
        {
          "name": "_debitBank",
          "type": "address"
        },
        {
          "name": "_creditBank",
          "type": "address"
        },
        {
          "name": "_trxHash",
          "type": "string"
        },
        {
          "name": "_amount",
          "type": "int256"
        },
        {
          "name": "_fee",
          "type": "int256"
        }
      ],
      "name": "startTrx",
      "outputs": [],
      "payable": false,
      "stateMutability": "nonpayable",
      "type": "function"
    },
    {
      "constant": false,
      "inputs": [
        {
          "name": "_bankAdd",
          "type": "address"
        },
        {
          "name": "_bankName",
          "type": "string"
        }
      ],
      "name": "addBank",
      "outputs": [],
      "payable": false,
      "stateMutability": "nonpayable",
      "type": "function"
    },
    {
      "constant": true,
      "inputs": [],
      "name": "owner",
      "outputs": [
        {
          "name": "",
          "type": "address"
        }
      ],
      "payable": false,
      "stateMutability": "view",
      "type": "function"
    },
    {
      "constant": true,
      "inputs": [
        {
          "name": "_bankAdd",
          "type": "address"
        }
      ],
      "name": "getBankAtms",
      "outputs": [
        {
          "name": "s",
          "type": "address[]"
        }
      ],
      "payable": false,
      "stateMutability": "view",
      "type": "function"
    },
    {
      "constant": true,
      "inputs": [],
      "name": "myBalance",
      "outputs": [
        {
          "name": "",
          "type": "int256"
        }
      ],
      "payable": false,
      "stateMutability": "view",
      "type": "function"
    },
    {
      "constant": false,
      "inputs": [
        {
          "name": "_fromAtm",
          "type": "address"
        },
        {
          "name": "_debitBank",
          "type": "address"
        },
        {
          "name": "_creditBank",
          "type": "address"
        },
        {
          "name": "_trxHash",
          "type": "string"
        },
        {
          "name": "_amount",
          "type": "int256"
        },
        {
          "name": "_fee",
          "type": "int256"
        },
        {
          "name": "_status",
          "type": "int256"
        }
      ],
      "name": "confirmDebit",
      "outputs": [],
      "payable": false,
      "stateMutability": "nonpayable",
      "type": "function"
    },
    {
      "constant": false,
      "inputs": [
        {
          "name": "newOwner",
          "type": "address"
        }
      ],
      "name": "transferOwnership",
      "outputs": [],
      "payable": false,
      "stateMutability": "nonpayable",
      "type": "function"
    },
    {
      "constant": true,
      "inputs": [
        {
          "name": "",
          "type": "address"
        }
      ],
      "name": "nameOf",
      "outputs": [
        {
          "name": "",
          "type": "string"
        }
      ],
      "payable": false,
      "stateMutability": "view",
      "type": "function"
    },
    {
      "constant": true,
      "inputs": [
        {
          "name": "_add",
          "type": "address"
        }
      ],
      "name": "getBalance",
      "outputs": [
        {
          "name": "",
          "type": "int256"
        }
      ],
      "payable": false,
      "stateMutability": "view",
      "type": "function"
    },
    {
      "inputs": [],
      "payable": false,
      "stateMutability": "nonpayable",
      "type": "constructor"
    },
    {
      "anonymous": false,
      "inputs": [
        {
          "indexed": false,
          "name": "_issueBank",
          "type": "string"
        },
        {
          "indexed": false,
          "name": "_account",
          "type": "string"
        },
        {
          "indexed": false,
          "name": "_pwd",
          "type": "string"
        },
        {
          "indexed": false,
          "name": "_amount",
          "type": "int256"
        }
      ],
      "name": "Withdrawal",
      "type": "event"
    },
    {
      "anonymous": false,
      "inputs": [
        {
          "indexed": false,
          "name": "_fromAtm",
          "type": "address"
        },
        {
          "indexed": false,
          "name": "_debitBank",
          "type": "address"
        },
        {
          "indexed": false,
          "name": "_creditBank",
          "type": "address"
        },
        {
          "indexed": false,
          "name": "_trxHash",
          "type": "string"
        },
        {
          "indexed": false,
          "name": "_amount",
          "type": "int256"
        },
        {
          "indexed": false,
          "name": "_fee",
          "type": "int256"
        }
      ],
      "name": "CheckDebit",
      "type": "event"
    },
    {
      "anonymous": false,
      "inputs": [
        {
          "indexed": false,
          "name": "_fromAtm",
          "type": "address"
        },
        {
          "indexed": false,
          "name": "_debitBank",
          "type": "address"
        },
        {
          "indexed": false,
          "name": "_creditBank",
          "type": "address"
        },
        {
          "indexed": false,
          "name": "_trxHash",
          "type": "string"
        },
        {
          "indexed": false,
          "name": "_amount",
          "type": "int256"
        },
        {
          "indexed": false,
          "name": "_fee",
          "type": "int256"
        }
      ],
      "name": "CheckCredit",
      "type": "event"
    },
    {
      "anonymous": false,
      "inputs": [
        {
          "indexed": false,
          "name": "_fromAtm",
          "type": "address"
        },
        {
          "indexed": false,
          "name": "_debitBank",
          "type": "address"
        },
        {
          "indexed": false,
          "name": "_creditBank",
          "type": "address"
        },
        {
          "indexed": false,
          "name": "_trxHash",
          "type": "string"
        },
        {
          "indexed": false,
          "name": "_amount",
          "type": "int256"
        },
        {
          "indexed": false,
          "name": "_fee",
          "type": "int256"
        },
        {
          "indexed": false,
          "name": "_status",
          "type": "int256"
        }
      ],
      "name": "Commit",
      "type": "event"
    }
  ],
  "bytecode": "0x6060604052341561000f57600080fd5b336000806101000a81548173ffffffffffffffffffffffffffffffffffffffff021916908373ffffffffffffffffffffffffffffffffffffffff1602179055506117e88061005e6000396000f3006060604052600436106100d0576000357c0100000000000000000000000000000000000000000000000000000000900463ffffffff16806305bb8aae146100d557806315936b011461012d57806333860b09146101b45780636d4ce63c14610289578063803921ed146102b25780638723a1811461034f5780638c438908146103ec5780638da5cb5b14610439578063c5ca75b71461048e578063c9116b691461051c578063ecdfce9e14610545578063f2fde38b146105eb578063f5c5738214610624578063f8b2cb4f146106d6575b600080fd5b34156100e057600080fd5b61012b600480803573ffffffffffffffffffffffffffffffffffffffff1690602001909190803573ffffffffffffffffffffffffffffffffffffffff16906020019091905050610723565b005b341561013857600080fd5b6101b2600480803573ffffffffffffffffffffffffffffffffffffffff1690602001909190803573ffffffffffffffffffffffffffffffffffffffff1690602001909190803590602001908201803590602001919091929080359060200190919080359060200190919080359060200190919050506109ba565b005b34156101bf57600080fd5b610287600480803573ffffffffffffffffffffffffffffffffffffffff1690602001909190803573ffffffffffffffffffffffffffffffffffffffff1690602001909190803573ffffffffffffffffffffffffffffffffffffffff1690602001909190803590602001908201803590602001908080601f01602080910402602001604051908101604052809392919081815260200183838082843782019150505050505091908035906020019091908035906020019091908035906020019091905050610b1e565b005b341561029457600080fd5b61029c610d6b565b6040518082815260200191505060405180910390f35b34156102bd57600080fd5b61034d600480803573ffffffffffffffffffffffffffffffffffffffff16906020019091908035906020019082018035906020019190919290803573ffffffffffffffffffffffffffffffffffffffff1690602001909190803590602001908201803590602001919091929080359060200190820180359060200191909192908035906020019091905050610d75565b005b341561035a57600080fd5b6103ea600480803573ffffffffffffffffffffffffffffffffffffffff1690602001909190803573ffffffffffffffffffffffffffffffffffffffff1690602001909190803573ffffffffffffffffffffffffffffffffffffffff169060200190919080359060200190820180359060200191909192908035906020019091908035906020019091905050610eaf565b005b34156103f757600080fd5b610437600480803573ffffffffffffffffffffffffffffffffffffffff169060200190919080359060200190820180359060200191909192905050610fc3565b005b341561044457600080fd5b61044c6110b7565b604051808273ffffffffffffffffffffffffffffffffffffffff1673ffffffffffffffffffffffffffffffffffffffff16815260200191505060405180910390f35b341561049957600080fd5b6104c5600480803573ffffffffffffffffffffffffffffffffffffffff169060200190919050506110dc565b6040518080602001828103825283818151815260200191508051906020019060200280838360005b838110156105085780820151818401526020810190506104ed565b505050509050019250505060405180910390f35b341561052757600080fd5b61052f6111af565b6040518082815260200191505060405180910390f35b341561055057600080fd5b6105e9600480803573ffffffffffffffffffffffffffffffffffffffff1690602001909190803573ffffffffffffffffffffffffffffffffffffffff1690602001909190803573ffffffffffffffffffffffffffffffffffffffff1690602001909190803590602001908201803590602001919091929080359060200190919080359060200190919080359060200190919050506111f6565b005b34156105f657600080fd5b610622600480803573ffffffffffffffffffffffffffffffffffffffff169060200190919050506113c2565b005b341561062f57600080fd5b61065b600480803573ffffffffffffffffffffffffffffffffffffffff16906020019091905050611460565b6040518080602001828103825283818151815260200191508051906020019080838360005b8381101561069b578082015181840152602081019050610680565b50505050905090810190601f1680156106c85780820380516001836020036101000a031916815260200191505b509250505060405180910390f35b34156106e157600080fd5b61070d600480803573ffffffffffffffffffffffffffffffffffffffff16906020019091905050611510565b6040518082815260200191505060405180910390f35b600061072d611636565b60008060009054906101000a900473ffffffffffffffffffffffffffffffffffffffff1673ffffffffffffffffffffffffffffffffffffffff163373ffffffffffffffffffffffffffffffffffffffff1614151561078a57600080fd5b6000600160008673ffffffffffffffffffffffffffffffffffffffff1673ffffffffffffffffffffffffffffffffffffffff16815260200190815260200160002081905550600360008673ffffffffffffffffffffffffffffffffffffffff1673ffffffffffffffffffffffffffffffffffffffff168152602001908152602001600020805490509250600183016040518059106108255750595b90808252806020026020018201604052509150600090505b8281101561091457600360008673ffffffffffffffffffffffffffffffffffffffff1673ffffffffffffffffffffffffffffffffffffffff1681526020019081526020016000208181548110151561089157fe5b906000526020600020900160009054906101000a900473ffffffffffffffffffffffffffffffffffffffff1682828151811015156108cb57fe5b9060200190602002019073ffffffffffffffffffffffffffffffffffffffff16908173ffffffffffffffffffffffffffffffffffffffff1681525050808060010191505061083d565b83828481518110151561092357fe5b9060200190602002019073ffffffffffffffffffffffffffffffffffffffff16908173ffffffffffffffffffffffffffffffffffffffff168152505081600360008773ffffffffffffffffffffffffffffffffffffffff1673ffffffffffffffffffffffffffffffffffffffff16815260200190815260200160002090805190602001906109b292919061164a565b505050505050565b60006103e8841415610a6557818301600160008973ffffffffffffffffffffffffffffffffffffffff1673ffffffffffffffffffffffffffffffffffffffff16815260200190815260200160002060008282540392505081905550818301600160008a73ffffffffffffffffffffffffffffffffffffffff1673ffffffffffffffffffffffffffffffffffffffff168152602001908152602001600020600082825401925050819055505b8790508073ffffffffffffffffffffffffffffffffffffffff16634a87b8c8878787866040518563ffffffff167c010000000000000000000000000000000000000000000000000000000002815260040180806020018481526020018381526020018281038252868682818152602001925080828437820191505095505050505050600060405180830381600087803b1515610b0057600080fd5b6102c65a03f11515610b1157600080fd5b5050505050505050505050565b6103e8811415610c1257818301600160008873ffffffffffffffffffffffffffffffffffffffff1673ffffffffffffffffffffffffffffffffffffffff1681526020019081526020016000206000828254039250508190555082600160008773ffffffffffffffffffffffffffffffffffffffff1673ffffffffffffffffffffffffffffffffffffffff1681526020019081526020016000206000828254019250508190555081600160008973ffffffffffffffffffffffffffffffffffffffff1673ffffffffffffffffffffffffffffffffffffffff168152602001908152602001600020600082825401925050819055505b7fca2a3cb5c30d06f2e2e1a3670f9f5612ed124bf7cf7806b91f6c14f6d615188c87878787878787604051808873ffffffffffffffffffffffffffffffffffffffff1673ffffffffffffffffffffffffffffffffffffffff1681526020018773ffffffffffffffffffffffffffffffffffffffff1673ffffffffffffffffffffffffffffffffffffffff1681526020018673ffffffffffffffffffffffffffffffffffffffff1673ffffffffffffffffffffffffffffffffffffffff16815260200180602001858152602001848152602001838152602001828103825286818151815260200191508051906020019080838360005b83811015610d22578082015181840152602081019050610d07565b50505050905090810190601f168015610d4f5780820380516001836020036101000a031916815260200191505b509850505050505050505060405180910390a150505050505050565b60006101c8905090565b600080610d81886115b4565b91508190508073ffffffffffffffffffffffffffffffffffffffff1663f004e5db8c8c8c8b8b8b8b8b6040518963ffffffff167c0100000000000000000000000000000000000000000000000000000000028152600401808973ffffffffffffffffffffffffffffffffffffffff1673ffffffffffffffffffffffffffffffffffffffff16815260200180602001806020018060200185815260200184810384528b8b82818152602001925080828437820191505084810383528989828181526020019250808284378201915050848103825287878281815260200192508082843782019150509b505050505050505050505050600060405180830381600087803b1515610e8e57600080fd5b6102c65a03f11515610e9f57600080fd5b5050505050505050505050505050565b6000610eba876115b4565b90507f6a978c8ea4279276e7260b72d46ecdfd7dae6b1646d3df19dc8d22066f57045f88888888888888604051808873ffffffffffffffffffffffffffffffffffffffff1673ffffffffffffffffffffffffffffffffffffffff1681526020018773ffffffffffffffffffffffffffffffffffffffff1673ffffffffffffffffffffffffffffffffffffffff1681526020018673ffffffffffffffffffffffffffffffffffffffff1673ffffffffffffffffffffffffffffffffffffffff16815260200180602001848152602001838152602001828103825286868281815260200192508082843782019150509850505050505050505060405180910390a15050505050505050565b6000809054906101000a900473ffffffffffffffffffffffffffffffffffffffff1673ffffffffffffffffffffffffffffffffffffffff163373ffffffffffffffffffffffffffffffffffffffff1614151561101e57600080fd5b6000600160008573ffffffffffffffffffffffffffffffffffffffff1673ffffffffffffffffffffffffffffffffffffffff168152602001908152602001600020819055508181600260008673ffffffffffffffffffffffffffffffffffffffff1673ffffffffffffffffffffffffffffffffffffffff16815260200190815260200160002091906110b19291906116d4565b50505050565b6000809054906101000a900473ffffffffffffffffffffffffffffffffffffffff1681565b6110e4611636565b600360008373ffffffffffffffffffffffffffffffffffffffff1673ffffffffffffffffffffffffffffffffffffffff1681526020019081526020016000208054806020026020016040519081016040528092919081815260200182805480156111a357602002820191906000526020600020905b8160009054906101000a900473ffffffffffffffffffffffffffffffffffffffff1673ffffffffffffffffffffffffffffffffffffffff1681526020019060010190808311611159575b50505050509050919050565b6000600160003373ffffffffffffffffffffffffffffffffffffffff1673ffffffffffffffffffffffffffffffffffffffff16815260200190815260200160002054905090565b60006103e882141561120757611249565b61124889898989898080601f016020809104026020016040519081016040528093929190818152602001838380828437820191505050505050888888610b1e565b5b60008773ffffffffffffffffffffffffffffffffffffffff1614156112ae576112a989898989898080601f016020809104026020016040519081016040528093929190818152602001838380828437820191505050505050888888610b1e565b6113b7565b6112b7876115b4565b90507fd5f2b7bb4e311caf89c85f2378b5377b3278c79189c00d58775d129e43d2c14989898989898989604051808873ffffffffffffffffffffffffffffffffffffffff1673ffffffffffffffffffffffffffffffffffffffff1681526020018773ffffffffffffffffffffffffffffffffffffffff1673ffffffffffffffffffffffffffffffffffffffff1681526020018673ffffffffffffffffffffffffffffffffffffffff1673ffffffffffffffffffffffffffffffffffffffff16815260200180602001848152602001838152602001828103825286868281815260200192508082843782019150509850505050505050505060405180910390a15b505050505050505050565b6000809054906101000a900473ffffffffffffffffffffffffffffffffffffffff1673ffffffffffffffffffffffffffffffffffffffff163373ffffffffffffffffffffffffffffffffffffffff1614151561141d57600080fd5b806000806101000a81548173ffffffffffffffffffffffffffffffffffffffff021916908373ffffffffffffffffffffffffffffffffffffffff16021790555050565b60026020528060005260406000206000915090508054600181600116156101000203166002900480601f0160208091040260200160405190810160405280929190818152602001828054600181600116156101000203166002900480156115085780601f106114dd57610100808354040283529160200191611508565b820191906000526020600020905b8154815290600101906020018083116114eb57829003601f168201915b505050505081565b60008060009054906101000a900473ffffffffffffffffffffffffffffffffffffffff1673ffffffffffffffffffffffffffffffffffffffff163373ffffffffffffffffffffffffffffffffffffffff1614151561156d57600080fd5b600160008373ffffffffffffffffffffffffffffffffffffffff1673ffffffffffffffffffffffffffffffffffffffff168152602001908152602001600020549050919050565b6000600360008373ffffffffffffffffffffffffffffffffffffffff1673ffffffffffffffffffffffffffffffffffffffff168152602001908152602001600020600081548110151561160357fe5b906000526020600020900160009054906101000a900473ffffffffffffffffffffffffffffffffffffffff169050919050565b602060405190810160405280600081525090565b8280548282559060005260206000209081019282156116c3579160200282015b828111156116c25782518260006101000a81548173ffffffffffffffffffffffffffffffffffffffff021916908373ffffffffffffffffffffffffffffffffffffffff1602179055509160200191906001019061166a565b5b5090506116d09190611754565b5090565b828054600181600116156101000203166002900490600052602060002090601f016020900481019282601f1061171557803560ff1916838001178555611743565b82800160010185558215611743579182015b82811115611742578235825591602001919060010190611727565b5b5090506117509190611797565b5090565b61179491905b8082111561179057600081816101000a81549073ffffffffffffffffffffffffffffffffffffffff02191690555060010161175a565b5090565b90565b6117b991905b808211156117b557600081600090555060010161179d565b5090565b905600a165627a7a7230582059d837e388bb1088ea5e2f1e5477fa09abc12b0b77de3a5530dbda458b43fcc50029",
  "source": "pragma solidity ^0.4.0;\r\n\r\ncontract owned {\r\n    address public owner;\r\n\r\n    function owned() public {\r\n        owner = msg.sender;\r\n    }\r\n\r\n    modifier onlyOwner {\r\n        require(msg.sender == owner);\r\n        _;\r\n    }\r\n\r\n    function transferOwnership(address newOwner) onlyOwner public {\r\n        owner = newOwner;\r\n    }\r\n}\r\n\r\ncontract ATMNode is owned{\r\n\r\n    BTM btm;\r\n    // the event to tell Node of the transaction authorisation result\r\n    //trxHash - the unique trx id\r\n    //status - the response status\r\n    event WithdrawalAuthorisation(string trxHash, int status, int fee);\r\n    //the event to tell node to start a CWD authorisation with ATMP\r\n    event WithdrawalRequest(address _fromAtm, string trxHash, string _account, string _pwd, int _amount);\r\n  \r\n\r\n    //the constrcutor with a BTM contract address\r\n    function ATMNode(address _btm) {\r\n        btm = BTM(_btm);\r\n    }\r\n\r\n    //the start point of a CWD, just call BTM contract to start\r\n    function startWithdraw(address _fromATM, string trxHash,  address _issueBank, string _account, string _pwd, int _amount) external  onlyOwner{\r\n        btm.withdraw(_fromATM, trxHash, _issueBank,_account, _pwd, _amount);//also carry the fromATM information\r\n        //msg.sender = the address who calling this function, i.e. the ATMnode js coinbase\r\n    }\r\n\r\n    //to be called by the BTM, to notify the node to start authorisation with ATMP\r\n    function receiveWithdrawal(address _fromAtm, string trxHash, string _account, string _pwd, int _amount) external{\r\n       // require(msg.sender == btm.address);\r\n        \r\n        WithdrawalRequest(_fromAtm, trxHash, _account,_pwd,_amount);\r\n    }\r\n\r\n    //called by the owner node after atmp authorisation. just call BTM contract to startAuthorise\r\n    function startAuthorise(address _fromAtm, address _issueBank, string trxHash, int status, int _amount,int fee) external onlyOwner{\r\n        btm.startAuthorise(_fromAtm, _issueBank, trxHash,status,_amount, fee); \r\n    }\r\n\r\n    //called by the BTM, to notify the fromATM node of the authorisation result\r\n    function postAuthorise(string trxHash, int status, int fee)external{\r\n       // require(msg.sender == btm.address);\r\n        WithdrawalAuthorisation(trxHash, status, fee);\r\n    }\r\n    \r\n    function get() constant returns (int  x){\r\n        return 123;\r\n        \r\n    }\r\n    function getA() constant returns (int x){\r\n        return btm.get();\r\n    }\r\n}\r\n\r\ncontract BTM is owned{\r\n    mapping (address => int256) private balanceOf;//cg: represent balance of each account\r\n    mapping (address => string) public nameOf;//bank address - bank name\r\n    mapping (address => address[]) atmsOf;//bank address - the atms[] of the bank\r\n    event Withdrawal(string _issueBank, string _account, string _pwd, int _amount);\r\n    int constant STATUS_OK = 1000;\r\n    //event to notify the specific debit bank ATM node to check whether the transaction can be debitted from the debit bank account.\r\n    //the debit bank has the right to know all transaction information\r\n    event CheckDebit(address _fromAtm, address _debitBank, address _creditBank,  string _trxHash, int256 _amount, int256 _fee);\r\n    \r\n    //event to notify the specific credit bank ATM node to check whether the transaction can be creditted to the credit bank account.\r\n    //the credit bank has the right to know all transaction information\r\n    event CheckCredit(address _fromAtm, address _debitBank, address _creditBank,  string _trxHash, int256 _amount, int256 _fee);//the debit bank has the right to know all transaction information\r\n    //event to notify the _fromAtm node to commit the transaction\r\n    event Commit(address _fromAtm, address _debitBank, address _creditBank,  string _trxHash, int256 _amount, int256 _fee, int _status);\r\n    function BTM(){       \r\n        \r\n    }\r\n    //the function to be called by an ATM node to start the transaction\r\n    //_debitBank and _debitAccount must be valid, otherwise it has no point for transaction come to blockchain\r\n    // the fee is defined by the _fromAtm because it's the _fromAtm to receive the fee\r\n    function startTrx(address _fromAtm, address _debitBank, address _creditBank,string _trxHash, int256 _amount, int256 _fee) external{\r\n        var debitNode = getDestNode(_debitBank);//find an ATM node from the _debitBank\r\n        CheckDebit( _fromAtm,  _debitBank,  _creditBank,  _trxHash,   _amount,  _fee);\r\n    }\r\n    //to be called by the credit bank ATM node to confirm that it's ok to be creditted for the transaction\r\n    function confirmDebit(address _fromAtm, address _debitBank, address _creditBank, string _trxHash, int256 _amount, int256 _fee, int _status) external{\r\n\r\n        if(_status == STATUS_OK){\r\n            //do nth but wait to check credit information\r\n        }else{//no need to check credit, can commit transaction now (rejection)\r\n            confirmCredit( _fromAtm,  _debitBank,  _creditBank,  _trxHash,   _amount,  _fee, _status);\r\n        }\r\n\r\n        if(_creditBank == 0x0){//no credit bank - like CWD, just to start confirmCredit\r\n            confirmCredit( _fromAtm,  _debitBank,  _creditBank,  _trxHash,   _amount,  _fee, _status);\r\n        }else{\r\n            var creditNode = getDestNode(_creditBank);//find an ATM node from the _creditBank\r\n            CheckCredit( _fromAtm,  _debitBank,  _creditBank,  _trxHash,   _amount,  _fee);\r\n        }\r\n        \r\n\r\n    }\r\n    function confirmCredit(address _fromAtm, address _debitBank, address _creditBank,  string _trxHash, int256 _amount, int256 _fee, int _status) public{\r\n        if(_status == STATUS_OK){\r\n            balanceOf[_debitBank] -= (_amount+_fee);\r\n            balanceOf[_creditBank] += _amount;\r\n            balanceOf[_fromAtm] += _fee;\r\n        }        \r\n        Commit( _fromAtm,  _debitBank,  _creditBank,  _trxHash,   _amount,  _fee, _status);\r\n\r\n    }\r\n    //struct BankAtms{\r\n    //   mapping (address =>int256) balanceOf;\r\n    //}\r\n    //mapping (address=>BankAtms) bankAtmList;//mapping of bankName - ATMList\r\n    function addBank(address _bankAdd, string _bankName) external onlyOwner{\r\n        balanceOf[_bankAdd] = 0;\r\n        nameOf[_bankAdd] = _bankName;\r\n    }\r\n    function addATM(address _bankAdd, address _atmAdd) external onlyOwner{\r\n        //if(bankAtmList[_bankAdd] == 0){\r\n        //    bankAtmList[_bankAdd] = BankAtms();//assign a new BankAtms \r\n        //}else{\r\n        // //do nth   \r\n        //}\r\n        //atmsOf[_bankName];\r\n        balanceOf[_atmAdd] = 0;\r\n        uint oldLength = atmsOf[_bankAdd].length;\r\n        address[] memory newAdds = new address[](oldLength+1);\r\n        for(uint i = 0; i < oldLength; i ++){\r\n            newAdds[i] = atmsOf[_bankAdd][i];\r\n        }\r\n        newAdds[oldLength] = _atmAdd;\r\n        atmsOf[_bankAdd] = newAdds;\r\n    }\r\n    function getBankAtms(address _bankAdd) external view returns(address[] s){\r\n        return atmsOf[_bankAdd];\r\n    }\r\n    \r\n    //this function must be only called by the aquiring ATM\r\n    //it will find an dest ATM for authorisation\r\n    function withdraw(address _fromAtm, string trxHash, address _issueBank, string _account, string _pwd, int _amount) external {\r\n        var destAtm = getDestNode(_issueBank);\r\n        var destAtmNode = ATMNode(destAtm);\r\n        destAtmNode.receiveWithdrawal(_fromAtm,trxHash,_account,_pwd,_amount);\r\n    }\r\n    //return an ATM node of the selected bank, randomly or load-balanced\r\n    function getDestNode(address _issueBank) internal returns (address dest){\r\n        return atmsOf[_issueBank][0];//TODO - need to randomly return a node\r\n    }\r\n\r\n    \r\n    // this function can only be called by the destAtmNode\r\n    // it will debit/credit, and then ask the fromATMNode to complete the trx\r\n    function startAuthorise(address _fromAtm, address _issueBank, string trxHash, int status, int _amount, int fee) external{\r\n        if(status == STATUS_OK){\r\n            balanceOf[_issueBank]-= (_amount + fee);//note!!!! debit must be done before credit\r\n            balanceOf[_fromAtm] += (_amount + fee);\r\n        }\r\n        var fromATMNode = ATMNode(_fromAtm);\r\n        fromATMNode.postAuthorise(trxHash, status, fee);\r\n    }\r\n\r\n\r\n\r\n    \r\n    \r\n    //get balance of any account - can only be called by owner\r\n    function getBalance(address _add) external view onlyOwner returns (int256) {\r\n        return balanceOf[_add];\r\n    }\r\n    \r\n    //return myself's balance who call's this\r\n    function myBalance() external view returns (int256){\r\n        return balanceOf[msg.sender];\r\n    }\r\n    function get() pure returns (int a){\r\n        return 456;\r\n    }\r\n    \r\n    \r\n}\r\n",
  "sourcePath": "/home/charles/trfb/contracts/BTM.sol",
  "compiler": {
    "name": "solc",
    "version": "0.4.18+commit.9cf6e910.Emscripten.clang"
  },
  "schemaVersion": "1.0.1",
  "updatedAt": "2017-12-04T15:55:32.112Z"
}