{
  "contractName": "BTM",
  "abi": [
    {
      "constant": false,
      "inputs": [
        {
          "name": "_fromAtm",
          "type": "address"
        },
        {
          "name": "_debitBankAtm",
          "type": "address"
        },
        {
          "name": "_creditBankAtm",
          "type": "address"
        },
        {
          "name": "_trxHash",
          "type": "string"
        },
        {
          "name": "_amount",
          "type": "int256"
        },
        {
          "name": "_fee",
          "type": "int256"
        },
        {
          "name": "_feeFrDebitBank",
          "type": "bool"
        },
        {
          "name": "_status",
          "type": "int256"
        }
      ],
      "name": "confirmCredit",
      "outputs": [],
      "payable": false,
      "stateMutability": "nonpayable",
      "type": "function"
    },
    {
      "constant": false,
      "inputs": [
        {
          "name": "_fromAtm",
          "type": "address"
        },
        {
          "name": "_debitBank",
          "type": "string"
        },
        {
          "name": "_creditBank",
          "type": "string"
        },
        {
          "name": "_trxHash",
          "type": "string"
        },
        {
          "name": "_amount",
          "type": "int256"
        },
        {
          "name": "_fee",
          "type": "int256"
        }
      ],
      "name": "startTrx",
      "outputs": [],
      "payable": false,
      "stateMutability": "nonpayable",
      "type": "function"
    },
    {
      "constant": false,
      "inputs": [
        {
          "name": "_bankAdd",
          "type": "string"
        },
        {
          "name": "_atmAdd",
          "type": "address[]"
        }
      ],
      "name": "setBankATM",
      "outputs": [],
      "payable": false,
      "stateMutability": "nonpayable",
      "type": "function"
    },
    {
      "constant": true,
      "inputs": [],
      "name": "getDate",
      "outputs": [
        {
          "name": "a",
          "type": "uint256"
        }
      ],
      "payable": false,
      "stateMutability": "view",
      "type": "function"
    },
    {
      "constant": true,
      "inputs": [
        {
          "name": "_bankAdd",
          "type": "string"
        }
      ],
      "name": "getBankAtms",
      "outputs": [
        {
          "name": "s",
          "type": "address[]"
        }
      ],
      "payable": false,
      "stateMutability": "view",
      "type": "function"
    },
    {
      "constant": true,
      "inputs": [],
      "name": "owner",
      "outputs": [
        {
          "name": "",
          "type": "address"
        }
      ],
      "payable": false,
      "stateMutability": "view",
      "type": "function"
    },
    {
      "constant": true,
      "inputs": [],
      "name": "myBalance",
      "outputs": [
        {
          "name": "",
          "type": "int256"
        }
      ],
      "payable": false,
      "stateMutability": "view",
      "type": "function"
    },
    {
      "constant": false,
      "inputs": [
        {
          "name": "_fromAtm",
          "type": "address"
        },
        {
          "name": "_debitBankAtm",
          "type": "address"
        },
        {
          "name": "_creditBank",
          "type": "string"
        },
        {
          "name": "_trxHash",
          "type": "string"
        },
        {
          "name": "_amount",
          "type": "int256"
        },
        {
          "name": "_fee",
          "type": "int256"
        },
        {
          "name": "_status",
          "type": "int256"
        }
      ],
      "name": "confirmDebit",
      "outputs": [],
      "payable": false,
      "stateMutability": "nonpayable",
      "type": "function"
    },
    {
      "constant": false,
      "inputs": [
        {
          "name": "anAccount",
          "type": "address"
        },
        {
          "name": "_amount",
          "type": "int256"
        }
      ],
      "name": "changeBalance",
      "outputs": [],
      "payable": false,
      "stateMutability": "nonpayable",
      "type": "function"
    },
    {
      "constant": false,
      "inputs": [
        {
          "name": "newOwner",
          "type": "address"
        }
      ],
      "name": "transferOwnership",
      "outputs": [],
      "payable": false,
      "stateMutability": "nonpayable",
      "type": "function"
    },
    {
      "constant": true,
      "inputs": [
        {
          "name": "_add",
          "type": "address"
        }
      ],
      "name": "getBalance",
      "outputs": [
        {
          "name": "",
          "type": "int256"
        }
      ],
      "payable": false,
      "stateMutability": "view",
      "type": "function"
    },
    {
      "inputs": [],
      "payable": false,
      "stateMutability": "nonpayable",
      "type": "constructor"
    },
    {
      "anonymous": false,
      "inputs": [
        {
          "indexed": false,
          "name": "_fromAtm",
          "type": "address"
        },
        {
          "indexed": false,
          "name": "_debitBankAtm",
          "type": "address"
        },
        {
          "indexed": false,
          "name": "_creditBank",
          "type": "string"
        },
        {
          "indexed": false,
          "name": "_trxHash",
          "type": "string"
        },
        {
          "indexed": false,
          "name": "_amount",
          "type": "int256"
        },
        {
          "indexed": false,
          "name": "_fee",
          "type": "int256"
        }
      ],
      "name": "CheckDebit",
      "type": "event"
    },
    {
      "anonymous": false,
      "inputs": [
        {
          "indexed": false,
          "name": "_fromAtm",
          "type": "address"
        },
        {
          "indexed": false,
          "name": "_debitBankAtm",
          "type": "address"
        },
        {
          "indexed": false,
          "name": "_creditBankAtm",
          "type": "address"
        },
        {
          "indexed": false,
          "name": "_trxHash",
          "type": "string"
        },
        {
          "indexed": false,
          "name": "_amount",
          "type": "int256"
        },
        {
          "indexed": false,
          "name": "_fee",
          "type": "int256"
        }
      ],
      "name": "CheckCredit",
      "type": "event"
    },
    {
      "anonymous": false,
      "inputs": [
        {
          "indexed": false,
          "name": "_fromAtm",
          "type": "address"
        },
        {
          "indexed": false,
          "name": "_debitBankAtm",
          "type": "address"
        },
        {
          "indexed": false,
          "name": "_creditBankAtm",
          "type": "address"
        },
        {
          "indexed": false,
          "name": "_trxHash",
          "type": "string"
        },
        {
          "indexed": false,
          "name": "_amount",
          "type": "int256"
        },
        {
          "indexed": false,
          "name": "_fee",
          "type": "int256"
        },
        {
          "indexed": false,
          "name": "_status",
          "type": "int256"
        }
      ],
      "name": "Commit",
      "type": "event"
    }
  ],
  "bytecode": "0x6060604052341561000f57600080fd5b336000806101000a81548173ffffffffffffffffffffffffffffffffffffffff021916908373ffffffffffffffffffffffffffffffffffffffff1602179055506112a58061005e6000396000f3006060604052600436106100af576000357c0100000000000000000000000000000000000000000000000000000000900463ffffffff1680630ab3ae64146100b4578063143fcbce14610194578063205a4e6d1461021b578063430fe9c11461025d5780637c5c3dc2146102865780638da5cb5b14610309578063c9116b691461035e578063d1e6675214610387578063da75bb9414610480578063f2fde38b146104c2578063f8b2cb4f146104fb575b600080fd5b34156100bf57600080fd5b610192600480803573ffffffffffffffffffffffffffffffffffffffff1690602001909190803573ffffffffffffffffffffffffffffffffffffffff1690602001909190803573ffffffffffffffffffffffffffffffffffffffff1690602001909190803590602001908201803590602001908080601f016020809104026020016040519081016040528093929190818152602001838380828437820191505050505050919080359060200190919080359060200190919080351515906020019091908035906020019091905050610548565b005b341561019f57600080fd5b610219600480803573ffffffffffffffffffffffffffffffffffffffff1690602001909190803590602001908201803590602001919091929080359060200190820180359060200191909192908035906020019082018035906020019190919290803590602001909190803590602001909190505061083a565b005b341561022657600080fd5b61025b6004808035906020019082018035906020019190919290803590602001908201803590602001919091929050506109f6565b005b341561026857600080fd5b610270610a8c565b6040518082815260200191505060405180910390f35b341561029157600080fd5b6102b260048080359060200190820180359060200191909192905050610ac5565b6040518080602001828103825283818151815260200191508051906020019060200280838360005b838110156102f55780820151818401526020810190506102da565b505050509050019250505060405180910390f35b341561031457600080fd5b61031c610bda565b604051808273ffffffffffffffffffffffffffffffffffffffff1673ffffffffffffffffffffffffffffffffffffffff16815260200191505060405180910390f35b341561036957600080fd5b610371610bff565b6040518082815260200191505060405180910390f35b341561039257600080fd5b61047e600480803573ffffffffffffffffffffffffffffffffffffffff1690602001909190803573ffffffffffffffffffffffffffffffffffffffff1690602001909190803590602001908201803590602001908080601f0160208091040260200160405190810160405280939291908181526020018383808284378201915050505050509190803590602001908201803590602001908080601f01602080910402602001604051908101604052809392919081815260200183838082843782019150505050505091908035906020019091908035906020019091908035906020019091905050610c46565b005b341561048b57600080fd5b6104c0600480803573ffffffffffffffffffffffffffffffffffffffff16906020019091908035906020019091905050610de7565b005b34156104cd57600080fd5b6104f9600480803573ffffffffffffffffffffffffffffffffffffffff16906020019091905050610f01565b005b341561050657600080fd5b610532600480803573ffffffffffffffffffffffffffffffffffffffff16906020019091905050610f9f565b6040518082815260200191505060405180910390f35b6103e88114156106e05783600160008973ffffffffffffffffffffffffffffffffffffffff1673ffffffffffffffffffffffffffffffffffffffff1681526020019081526020016000206000828254039250508190555083600160008873ffffffffffffffffffffffffffffffffffffffff1673ffffffffffffffffffffffffffffffffffffffff1681526020019081526020016000206000828254019250508190555081156106445782600160008973ffffffffffffffffffffffffffffffffffffffff1673ffffffffffffffffffffffffffffffffffffffff16815260200190815260200160002060008282540392505081905550610692565b82600160008873ffffffffffffffffffffffffffffffffffffffff1673ffffffffffffffffffffffffffffffffffffffff168152602001908152602001600020600082825403925050819055505b82600160008a73ffffffffffffffffffffffffffffffffffffffff1673ffffffffffffffffffffffffffffffffffffffff168152602001908152602001600020600082825401925050819055505b7fca2a3cb5c30d06f2e2e1a3670f9f5612ed124bf7cf7806b91f6c14f6d615188c88888888888887604051808873ffffffffffffffffffffffffffffffffffffffff1673ffffffffffffffffffffffffffffffffffffffff1681526020018773ffffffffffffffffffffffffffffffffffffffff1673ffffffffffffffffffffffffffffffffffffffff1681526020018673ffffffffffffffffffffffffffffffffffffffff1673ffffffffffffffffffffffffffffffffffffffff16815260200180602001858152602001848152602001838152602001828103825286818151815260200191508051906020019080838360005b838110156107f05780820151818401526020810190506107d5565b50505050905090810190601f16801561081d5780820380516001836020036101000a031916815260200191505b509850505050505050505060405180910390a15050505050505050565b6000808989905014156108c1576108bc8a8b89898080601f01602080910402602001604051908101604052809392919081815260200183838082843782019150505050505088888080601f01602080910402602001604051908101604052809392919081815260200183838082843782019150505050505087876103e8610c46565b6109ea565b6108fc89898080601f016020809104026020016040519081016040528093929190818152602001838380828437820191505050505050611043565b90507f2976bcc779b21d737e8dd1557e1b21403a3b3e349cf3aec3de7fca8cab7e72c48a82898989898989604051808973ffffffffffffffffffffffffffffffffffffffff1673ffffffffffffffffffffffffffffffffffffffff1681526020018873ffffffffffffffffffffffffffffffffffffffff1673ffffffffffffffffffffffffffffffffffffffff168152602001806020018060200185815260200184815260200183810383528989828181526020019250808284378201915050838103825287878281815260200192508082843782019150509a505050505050505050505060405180910390a15b50505050505050505050565b6000809054906101000a900473ffffffffffffffffffffffffffffffffffffffff1673ffffffffffffffffffffffffffffffffffffffff163373ffffffffffffffffffffffffffffffffffffffff16141515610a5157600080fd5b8181600286866040518083838082843782019150509250505090815260200160405180910390209190610a8592919061116e565b5050505050565b6000610a9661120e565b60206040519081016040528060008152509050600081511415610abc5760039150610ac1565b600191505b5090565b610acd611222565b6000809054906101000a900473ffffffffffffffffffffffffffffffffffffffff1673ffffffffffffffffffffffffffffffffffffffff163373ffffffffffffffffffffffffffffffffffffffff16141515610b2857600080fd5b60028383604051808383808284378201915050925050509081526020016040518091039020805480602002602001604051908101604052809291908181526020018280548015610bcd57602002820191906000526020600020905b8160009054906101000a900473ffffffffffffffffffffffffffffffffffffffff1673ffffffffffffffffffffffffffffffffffffffff1681526020019060010190808311610b83575b5050505050905092915050565b6000809054906101000a900473ffffffffffffffffffffffffffffffffffffffff1681565b6000600160003373ffffffffffffffffffffffffffffffffffffffff1673ffffffffffffffffffffffffffffffffffffffff16815260200190815260200160002054905090565b60006103e8821415610c5757610c69565b610c6888888a888888600089610548565b5b600086511415610c8957610c8488888a888888600189610548565b610ddd565b610c9286611043565b90507fd5f2b7bb4e311caf89c85f2378b5377b3278c79189c00d58775d129e43d2c149888883888888604051808773ffffffffffffffffffffffffffffffffffffffff1673ffffffffffffffffffffffffffffffffffffffff1681526020018673ffffffffffffffffffffffffffffffffffffffff1673ffffffffffffffffffffffffffffffffffffffff1681526020018573ffffffffffffffffffffffffffffffffffffffff1673ffffffffffffffffffffffffffffffffffffffff16815260200180602001848152602001838152602001828103825285818151815260200191508051906020019080838360005b83811015610d9d578082015181840152602081019050610d82565b50505050905090810190601f168015610dca5780820380516001836020036101000a031916815260200191505b5097505050505050505060405180910390a15b5050505050505050565b6000809054906101000a900473ffffffffffffffffffffffffffffffffffffffff1673ffffffffffffffffffffffffffffffffffffffff163373ffffffffffffffffffffffffffffffffffffffff16141515610e4257600080fd5b80600160008473ffffffffffffffffffffffffffffffffffffffff1673ffffffffffffffffffffffffffffffffffffffff1681526020019081526020016000206000828254019250508190555080600160008060009054906101000a900473ffffffffffffffffffffffffffffffffffffffff1673ffffffffffffffffffffffffffffffffffffffff1673ffffffffffffffffffffffffffffffffffffffff168152602001908152602001600020600082825403925050819055505050565b6000809054906101000a900473ffffffffffffffffffffffffffffffffffffffff1673ffffffffffffffffffffffffffffffffffffffff163373ffffffffffffffffffffffffffffffffffffffff16141515610f5c57600080fd5b806000806101000a81548173ffffffffffffffffffffffffffffffffffffffff021916908373ffffffffffffffffffffffffffffffffffffffff16021790555050565b60008060009054906101000a900473ffffffffffffffffffffffffffffffffffffffff1673ffffffffffffffffffffffffffffffffffffffff163373ffffffffffffffffffffffffffffffffffffffff16141515610ffc57600080fd5b600160008373ffffffffffffffffffffffffffffffffffffffff1673ffffffffffffffffffffffffffffffffffffffff168152602001908152602001600020549050919050565b6000806002836040518082805190602001908083835b60208310151561107e5780518252602082019150602081019050602083039250611059565b6001836020036101000a038019825116818451168082178552505050505050905001915050908152602001604051809103902080549050438115156110bf57fe5b0690506002836040518082805190602001908083835b6020831015156110fa57805182526020820191506020810190506020830392506110d5565b6001836020036101000a03801982511681845116808217855250505050505090500191505090815260200160405180910390208181548110151561113a57fe5b906000526020600020900160009054906101000a900473ffffffffffffffffffffffffffffffffffffffff16915050919050565b8280548282559060005260206000209081019282156111fd579160200282015b828111156111fc57823573ffffffffffffffffffffffffffffffffffffffff168260006101000a81548173ffffffffffffffffffffffffffffffffffffffff021916908373ffffffffffffffffffffffffffffffffffffffff1602179055509160200191906001019061118e565b5b50905061120a9190611236565b5090565b602060405190810160405280600081525090565b602060405190810160405280600081525090565b61127691905b8082111561127257600081816101000a81549073ffffffffffffffffffffffffffffffffffffffff02191690555060010161123c565b5090565b905600a165627a7a72305820d3ae676f36443e37f71750c044c660d95f6d4fc00849e56671eb10350a55eacb0029",
  "source": "pragma solidity ^0.4.0;\r\n\r\ncontract owned {\r\n    address public owner;\r\n\r\n    function owned() public {\r\n        owner = msg.sender;\r\n    }\r\n\r\n    modifier onlyOwner {\r\n        require(msg.sender == owner);\r\n        _;\r\n    }\r\n\r\n    function transferOwnership(address newOwner) onlyOwner public {\r\n        owner = newOwner;\r\n    }\r\n}\r\n\r\n\r\n\r\ncontract BTM is owned{\r\n    mapping (address => int256) private balanceOf;//cg: represent balance of each account\r\n   // mapping (address => string) public nameOf;//bank address - bank name\r\n    mapping (string => address[]) atmsOf;//bank address - the atms[] of the bank\r\n    //event Withdrawal(string _issueBank, string _account, string _pwd, int _amount);\r\n    int constant STATUS_OK = 1000;\r\n    //event to notify the specific debit bank ATM node to check whether the transaction can be debitted from the debit bank account.\r\n    //the debit bank has the right to know all transaction information\r\n    //pls note that this event reuqire _debitBankAtm address\r\n    event CheckDebit(address _fromAtm, address _debitBankAtm, string _creditBank,  string _trxHash, int256 _amount, int256 _fee);\r\n    \r\n    //event to notify the specific credit bank ATM node to check whether the transaction can be creditted to the credit bank account.\r\n    //the credit bank has the right to know all transaction information\r\n    //pls note that this event reuqire _creditBankAtm address\r\n    event CheckCredit(address _fromAtm, address _debitBankAtm, address _creditBankAtm,string _trxHash, int256 _amount, int256 _fee);//the debit bank has the right to know all transaction information\r\n    //event to notify the _fromAtm node to commit the transaction\r\n    event Commit(address _fromAtm, address _debitBankAtm, address _creditBankAtm,  string _trxHash, int256 _amount, int256 _fee, int _status);\r\n    function BTM(){       \r\n        \r\n    }\r\n    //the function to be called by an ATM node to start the transaction\r\n    //_debitBank and _debitAccount must be valid, otherwise it has no point for transaction come to blockchain\r\n    // the fee is defined by the _fromAtm because it's the _fromAtm to receive the fee\r\n    //_trxHash include like fromAccout / to account / pwd , such as {from：＂１２３“， to: \"456\", pwd: \"12345\"}\r\n    function startTrx(address _fromAtm, string _debitBank, string _creditBank,string _trxHash, int256 _amount, int256 _fee) external{\r\n        \r\n        if(bytes(_debitBank).length == 0){//no debit bank means _debitBank = _fromAtm, like CDP, just to start confirmDebit\r\n            confirmDebit(_fromAtm,_fromAtm, _creditBank, _trxHash, _amount, _fee,STATUS_OK);\r\n        }else{\r\n            var _debitBankAtm = getDestNode(_debitBank);//find an ATM node from the _debitBank\r\n            CheckDebit(_fromAtm,  _debitBankAtm,  _creditBank,  _trxHash,   _amount,  _fee);\r\n        }\r\n        \r\n    }\r\n    //to be called by the credit bank ATM node to confirm that it's ok to be creditted for the transaction\r\n    //pls note that this function require _debitBank address, but not _debitBankAtm\r\n    function confirmDebit(address _fromAtm, address _debitBankAtm, string _creditBank, string _trxHash, int256 _amount, int256 _fee, int _status) public{\r\n\r\n        if(_status == STATUS_OK){\r\n            //do nth but wait to check credit information\r\n        }else{//no need to check credit, can commit transaction now (rejection)\r\n            confirmCredit( _fromAtm,  _debitBankAtm,  _fromAtm,  _trxHash,   _amount,  _fee, false, _status);//no credit acc\r\n        }\r\n\r\n        if(bytes(_creditBank).length == 0){//no credit bank - like CWD, just to start confirmCredit\r\n            confirmCredit( _fromAtm,  _debitBankAtm,  _fromAtm,  _trxHash,   _amount,  _fee, true, _status);//no credit bank means _creditBankAtm = _fromAtm\r\n        }else{\r\n            var _creditBankAtm = getDestNode(_creditBank);//find an ATM node from the _creditBank\r\n            CheckCredit( _fromAtm,  _debitBankAtm,  _creditBankAtm, _trxHash,   _amount,  _fee);\r\n        }\r\n        \r\n\r\n    }\r\n    //pls note that this function require _creditBank address, but not _creditBankAtm\r\n    function confirmCredit(address _fromAtm, address _debitBankAtm, address _creditBankAtm,  string _trxHash, int256 _amount, int256 _fee, bool _feeFrDebitBank, int _status) public{\r\n        if(_status == STATUS_OK){\r\n            \r\n            balanceOf[_debitBankAtm] -= _amount;\r\n            balanceOf[_creditBankAtm] += _amount;\r\n            if(_feeFrDebitBank){\r\n                balanceOf[_debitBankAtm] -= _fee;\r\n            }else{\r\n                balanceOf[_creditBankAtm] -= _fee;\r\n                \r\n            }\r\n            balanceOf[_fromAtm] += _fee;\r\n        }        \r\n        Commit( _fromAtm,  _debitBankAtm,  _creditBankAtm,  _trxHash,   _amount,  _fee, _status);//should tell the _fromAtm abt the debit and credit acc for record\r\n\r\n    }\r\n    //struct BankAtms{\r\n    //   mapping (address =>int256) balanceOf;\r\n    //}\r\n    //mapping (address=>BankAtms) bankAtmList;//mapping of bankName - ATMList\r\n    //function addBank(address _bankAdd, string _bankName) external onlyOwner{\r\n    //    balanceOf[_bankAdd] = 0;\r\n    //    nameOf[_bankAdd] = _bankName;\r\n    //}\r\n    function setBankATM(string _bankAdd, address[] _atmAdd) external onlyOwner{\r\n        atmsOf[_bankAdd] = _atmAdd;\r\n    }\r\n    \r\n\r\n    function getBankAtms(string _bankAdd) external onlyOwner view returns(address[] s){\r\n        return atmsOf[_bankAdd];\r\n    }\r\n    \r\n    \r\n\r\n    //return an ATM node of the selected bank, randomly or load-balanced\r\n    function getDestNode(string _issueBank) internal returns (address dest){\r\n        var index = block.number % atmsOf[_issueBank].length;\r\n        return atmsOf[_issueBank][index];//TODO - need to randomly return a node\r\n    }   \r\n    \r\n    //get balance of any account - can only be called by owner\r\n    function getBalance(address _add) external view onlyOwner returns (int256) {\r\n        return balanceOf[_add];\r\n    }\r\n    \r\n    //return the msg.sender's balance\r\n    function myBalance() external view returns (int256){\r\n        return balanceOf[msg.sender];\r\n    }\r\n    \r\n    //move balance between the 'anAccount' and owner account\r\n    function changeBalance(address anAccount, int256 _amount) external onlyOwner{\r\n        balanceOf[anAccount] += _amount;\r\n        balanceOf[owner] -= _amount;\r\n    }\r\n   \r\n    //testing thing\r\n    function getDate() view returns (uint256 a){\r\n        var s=\"\";\r\n        if(bytes(s).length==0){\r\n            return 3;\r\n        }else{return 1;}\r\n    }\r\n    \r\n    \r\n}\r\n",
  "sourcePath": "/home/charles/ttt3/contracts/BTM.sol",
  "compiler": {
    "name": "solc",
    "version": "0.4.18+commit.9cf6e910.Emscripten.clang"
  },
  "schemaVersion": "1.0.1",
  "updatedAt": "2017-12-08T15:40:09.916Z"
}